{
  "_format": "hh-sol-artifact-1",
  "contractName": "IdentityLedger",
  "sourceName": "contracts/IdentityLedger.sol",
  "abi": [
    {
      "inputs": [],
      "stateMutability": "nonpayable",
      "type": "constructor"
    },
    {
      "anonymous": false,
      "inputs": [
        {
          "indexed": true,
          "internalType": "bytes32",
          "name": "hash",
          "type": "bytes32"
        },
        {
          "indexed": false,
          "internalType": "string",
          "name": "docType",
          "type": "string"
        },
        {
          "indexed": false,
          "internalType": "string",
          "name": "identityRef",
          "type": "string"
        },
        {
          "indexed": false,
          "internalType": "uint256",
          "name": "anchoredAt",
          "type": "uint256"
        }
      ],
      "name": "DocumentAnchored",
      "type": "event"
    },
    {
      "anonymous": false,
      "inputs": [
        {
          "indexed": true,
          "internalType": "bytes32",
          "name": "hash",
          "type": "bytes32"
        },
        {
          "indexed": false,
          "internalType": "uint256",
          "name": "revokedAt",
          "type": "uint256"
        }
      ],
      "name": "DocumentRevoked",
      "type": "event"
    },
    {
      "anonymous": false,
      "inputs": [
        {
          "indexed": true,
          "internalType": "address",
          "name": "oldOwner",
          "type": "address"
        },
        {
          "indexed": true,
          "internalType": "address",
          "name": "newOwner",
          "type": "address"
        }
      ],
      "name": "OwnershipTransferred",
      "type": "event"
    },
    {
      "inputs": [
        {
          "internalType": "bytes32",
          "name": "hash",
          "type": "bytes32"
        },
        {
          "internalType": "string",
          "name": "docType",
          "type": "string"
        },
        {
          "internalType": "string",
          "name": "identityRef",
          "type": "string"
        }
      ],
      "name": "anchorDocument",
      "outputs": [],
      "stateMutability": "nonpayable",
      "type": "function"
    },
    {
      "inputs": [],
      "name": "getTotalAnchored",
      "outputs": [
        {
          "internalType": "uint256",
          "name": "",
          "type": "uint256"
        }
      ],
      "stateMutability": "view",
      "type": "function"
    },
    {
      "inputs": [
        {
          "internalType": "bytes32",
          "name": "hash",
          "type": "bytes32"
        }
      ],
      "name": "isHashAnchored",
      "outputs": [
        {
          "internalType": "bool",
          "name": "",
          "type": "bool"
        }
      ],
      "stateMutability": "view",
      "type": "function"
    },
    {
      "inputs": [
        {
          "internalType": "bytes32",
          "name": "hash",
          "type": "bytes32"
        }
      ],
      "name": "isHashValid",
      "outputs": [
        {
          "internalType": "bool",
          "name": "",
          "type": "bool"
        }
      ],
      "stateMutability": "view",
      "type": "function"
    },
    {
      "inputs": [],
      "name": "owner",
      "outputs": [
        {
          "internalType": "address",
          "name": "",
          "type": "address"
        }
      ],
      "stateMutability": "view",
      "type": "function"
    },
    {
      "inputs": [
        {
          "internalType": "bytes32",
          "name": "hash",
          "type": "bytes32"
        }
      ],
      "name": "revokeDocument",
      "outputs": [],
      "stateMutability": "nonpayable",
      "type": "function"
    },
    {
      "inputs": [],
      "name": "totalAnchored",
      "outputs": [
        {
          "internalType": "uint256",
          "name": "",
          "type": "uint256"
        }
      ],
      "stateMutability": "view",
      "type": "function"
    },
    {
      "inputs": [
        {
          "internalType": "address",
          "name": "newOwner",
          "type": "address"
        }
      ],
      "name": "transferOwnership",
      "outputs": [],
      "stateMutability": "nonpayable",
      "type": "function"
    },
    {
      "inputs": [
        {
          "internalType": "bytes32",
          "name": "hash",
          "type": "bytes32"
        }
      ],
      "name": "verifyDocument",
      "outputs": [
        {
          "internalType": "bool",
          "name": "exists",
          "type": "bool"
        },
        {
          "internalType": "bool",
          "name": "isRevoked",
          "type": "bool"
        },
        {
          "internalType": "string",
          "name": "docType",
          "type": "string"
        },
        {
          "internalType": "string",
          "name": "identityRef",
          "type": "string"
        },
        {
          "internalType": "uint256",
          "name": "anchoredAt",
          "type": "uint256"
        },
        {
          "internalType": "uint256",
          "name": "revokedAt",
          "type": "uint256"
        }
      ],
      "stateMutability": "view",
      "type": "function"
    }
  ],
  "bytecode": "0x608060405234801561001057600080fd5b50600080546001600160a01b03191633179055610c7c806100326000396000f3fe608060405234801561001057600080fd5b50600436106100935760003560e01c8063a212e36f11610066578063a212e36f14610124578063ae62d02e1461012d578063ef5d533114610140578063f2fde38b14610153578063fe35089f1461016657600080fd5b806303c0ee601461009857806350d66208146100d25780638da5cb5b146100e4578063952be80d1461010f575b600080fd5b6100bd6100a636600461086f565b600090815260026020526040902060030154151590565b60405190151581526020015b60405180910390f35b6001545b6040519081526020016100c9565b6000546100f7906001600160a01b031681565b6040516001600160a01b0390911681526020016100c9565b61012261011d36600461086f565b61018b565b005b6100d660015481565b61012261013b36600461092b565b6102e5565b6100bd61014e36600461086f565b61057c565b610122610161366004610998565b6105b4565b61017961017436600461086f565b610684565b6040516100c996959493929190610a0e565b6000546001600160a01b031633146101be5760405162461bcd60e51b81526004016101b590610a59565b60405180910390fd5b600081815260026020526040812060030154900361021e5760405162461bcd60e51b815260206004820152601860248201527f48617368206e6f7420666f756e64206f6e206c6564676572000000000000000060448201526064016101b5565b60008181526002602052604090206004015460ff16156102805760405162461bcd60e51b815260206004820152601860248201527f446f63756d656e7420616c7265616479207265766f6b6564000000000000000060448201526064016101b5565b6000818152600260205260409081902060048101805460ff19166001179055426005909101819055905182917f17ceb56661e717a45c4f9160c9106b02e3c9ab6ecb42da2b1c6a59e8cbfd4aa1916102da91815260200190565b60405180910390a250565b6000546001600160a01b0316331461030f5760405162461bcd60e51b81526004016101b590610a59565b600083815260026020526040902060030154156103665760405162461bcd60e51b815260206004820152601560248201527412185cda08185b1c9958591e48185b98da1bdc9959605a1b60448201526064016101b5565b60408051808201909152600781526630b0b23430b0b960c91b6020918201528251908301206000907f95095a9df79227e103feeabb34a75afe55d6bd73b25bc2e9ab9cd6143912540914806103fa57506040805180820190915260038152623830b760e91b6020918201528351908401207f42e0ac7bc628eb9081b512f4eb24bd9b3aea00331eef760c30c1229f28725c79145b8061044657506040805180820190915260058152643b37ba32b960d91b6020918201528351908401207fcd157ad64ba4487a43c0029709fe8958bbe8ff3d254a9ac569005f257b8dd4d8145b90508061048d5760405162461bcd60e51b8152602060048201526015602482015274496e76616c696420646f63756d656e74207479706560581b60448201526064016101b5565b6040805160c081018252858152602080820186815282840186905242606084015260006080840181905260a08401819052888152600290925292902081518155915190919060018201906104e19082610b29565b50604082015160028201906104f69082610b29565b5060608201516003820155608082015160048201805460ff191691151591909117905560a0909101516005909101556001805490600061053583610be9565b9190505550837f7084ce194c4a44c3590464bda00c07894f3a586bd71f910c2788e0962afad7e984844260405161056e93929190610c10565b60405180910390a250505050565b600081815260026020526040812060030154158015906105ae575060008281526002602052604090206004015460ff16155b92915050565b6000546001600160a01b031633146105de5760405162461bcd60e51b81526004016101b590610a59565b6001600160a01b0381166106345760405162461bcd60e51b815260206004820152601d60248201527f4e6577206f776e657220697320746865207a65726f206164647265737300000060448201526064016101b5565b600080546001600160a01b038381166001600160a01b0319831681178455604051919092169283917f8be0079c531659141344cd1fd0a4f28419497f9722a3daafe3b4186f6b6457e09190a35050565b6000806060806000806000600260008981526020019081526020016000206040518060c0016040529081600082015481526020016001820180546106c790610aa0565b80601f01602080910402602001604051908101604052809291908181526020018280546106f390610aa0565b80156107405780601f1061071557610100808354040283529160200191610740565b820191906000526020600020905b81548152906001019060200180831161072357829003601f168201915b5050505050815260200160028201805461075990610aa0565b80601f016020809104026020016040519081016040528092919081815260200182805461078590610aa0565b80156107d25780601f106107a7576101008083540402835291602001916107d2565b820191906000526020600020905b8154815290600101906020018083116107b557829003601f168201915b505050918352505060038201546020820152600482015460ff16151560408201526005909101546060918201528101511515975090508661083d5750506040805160208082018352600080835283519182019093528281529196508695509350915083905080610866565b600181608001518260200151836040015184606001518560a00151965096509650965096509650505b91939550919395565b60006020828403121561088157600080fd5b5035919050565b634e487b7160e01b600052604160045260246000fd5b600082601f8301126108af57600080fd5b813567ffffffffffffffff808211156108ca576108ca610888565b604051601f8301601f19908116603f011681019082821181831017156108f2576108f2610888565b8160405283815286602085880101111561090b57600080fd5b836020870160208301376000602085830101528094505050505092915050565b60008060006060848603121561094057600080fd5b83359250602084013567ffffffffffffffff8082111561095f57600080fd5b61096b8783880161089e565b9350604086013591508082111561098157600080fd5b5061098e8682870161089e565b9150509250925092565b6000602082840312156109aa57600080fd5b81356001600160a01b03811681146109c157600080fd5b9392505050565b6000815180845260005b818110156109ee576020818501810151868301820152016109d2565b506000602082860101526020601f19601f83011685010191505092915050565b8615158152851515602082015260c060408201526000610a3160c08301876109c8565b8281036060840152610a4381876109c8565b6080840195909552505060a00152949350505050565b60208082526027908201527f4e6f7420617574686f72697a65643a2063616c6c6572206973206e6f74207468604082015266329037bbb732b960c91b606082015260800190565b600181811c90821680610ab457607f821691505b602082108103610ad457634e487b7160e01b600052602260045260246000fd5b50919050565b601f821115610b2457600081815260208120601f850160051c81016020861015610b015750805b601f850160051c820191505b81811015610b2057828155600101610b0d565b5050505b505050565b815167ffffffffffffffff811115610b4357610b43610888565b610b5781610b518454610aa0565b84610ada565b602080601f831160018114610b8c5760008415610b745750858301515b600019600386901b1c1916600185901b178555610b20565b600085815260208120601f198616915b82811015610bbb57888601518255948401946001909101908401610b9c565b5085821015610bd95787850151600019600388901b60f8161c191681555b5050505050600190811b01905550565b600060018201610c0957634e487b7160e01b600052601160045260246000fd5b5060010190565b606081526000610c2360608301866109c8565b8281036020840152610c3581866109c8565b91505082604083015294935050505056fea2646970667358221220efcd56b985e9a5714ccc43909d65154a59f9100baaa1ac184b746d026be0d25f64736f6c63430008140033",
  "linkReferences": {},
  "deployedLinkReferences": {}
}